{
  "contractName": "FIR_Records",
  "abi": [
    {
      "anonymous": false,
      "inputs": [
        {
          "indexed": false,
          "internalType": "string",
          "name": "_complainId",
          "type": "string"
        },
        {
          "indexed": false,
          "internalType": "uint256",
          "name": "_recordId",
          "type": "uint256"
        },
        {
          "indexed": false,
          "internalType": "uint256",
          "name": "_timestamp",
          "type": "uint256"
        },
        {
          "indexed": false,
          "internalType": "string",
          "name": "_complain",
          "type": "string"
        }
      ],
      "name": "recordAdded",
      "type": "event"
    },
    {
      "inputs": [
        {
          "internalType": "string",
          "name": "_complainId",
          "type": "string"
        },
        {
          "internalType": "string",
          "name": "_complain",
          "type": "string"
        }
      ],
      "name": "createComplain",
      "outputs": [],
      "stateMutability": "nonpayable",
      "type": "function"
    },
    {
      "inputs": [
        {
          "internalType": "uint256",
          "name": "_recordId",
          "type": "uint256"
        }
      ],
      "name": "fetchComplain",
      "outputs": [
        {
          "components": [
            {
              "internalType": "string",
              "name": "complainId",
              "type": "string"
            },
            {
              "internalType": "uint256",
              "name": "_recordId",
              "type": "uint256"
            },
            {
              "internalType": "uint256",
              "name": "timestamp",
              "type": "uint256"
            },
            {
              "internalType": "string",
              "name": "complain",
              "type": "string"
            }
          ],
          "internalType": "struct FIR_Records.Record",
          "name": "",
          "type": "tuple"
        }
      ],
      "stateMutability": "view",
      "type": "function",
      "constant": true
    },
    {
      "inputs": [],
      "name": "recordCount",
      "outputs": [
        {
          "internalType": "uint256",
          "name": "",
          "type": "uint256"
        }
      ],
      "stateMutability": "view",
      "type": "function",
      "constant": true
    }
  ],
  "bytecode": "0x608060405234801561000f575f80fd5b50610a808061001d5f395ff3fe608060405234801561000f575f80fd5b506004361061003f575f3560e01c8063653d548314610043578063900407bc1461005f578063ddd55c5e1461007d575b5f80fd5b61005d60048036038101906100589190610468565b6100ad565b005b61006761018f565b60405161007491906104f6565b60405180910390f35b61009760048036038101906100929190610539565b610197565b6040516100a49190610654565b60405180910390f35b60405180608001604052808381526020015f5481526020014281526020018281525060015f805481526020019081526020015f205f820151815f0190816100f4919061086e565b506020820151816001015560408201518160020155606082015181600301908161011e919061086e565b509050507f146e6afe75e2b4a0eef994dc5ff68bb59b7091dca9a3704a4954709ac0135365825f5460015f805481526020019081526020015f20600201548460405161016d9493929190610985565b60405180910390a15f8081548092919061018690610a03565b91905055505050565b5f8054905090565b61019f6102f5565b60015f8381526020019081526020015f206040518060800160405290815f820180546101ca906106a1565b80601f01602080910402602001604051908101604052809291908181526020018280546101f6906106a1565b80156102415780601f1061021857610100808354040283529160200191610241565b820191905f5260205f20905b81548152906001019060200180831161022457829003601f168201915b50505050508152602001600182015481526020016002820154815260200160038201805461026e906106a1565b80601f016020809104026020016040519081016040528092919081815260200182805461029a906106a1565b80156102e55780601f106102bc576101008083540402835291602001916102e5565b820191905f5260205f20905b8154815290600101906020018083116102c857829003601f168201915b5050505050815250509050919050565b6040518060800160405280606081526020015f81526020015f8152602001606081525090565b5f604051905090565b5f80fd5b5f80fd5b5f80fd5b5f80fd5b5f601f19601f8301169050919050565b7f4e487b71000000000000000000000000000000000000000000000000000000005f52604160045260245ffd5b61037a82610334565b810181811067ffffffffffffffff8211171561039957610398610344565b5b80604052505050565b5f6103ab61031b565b90506103b78282610371565b919050565b5f67ffffffffffffffff8211156103d6576103d5610344565b5b6103df82610334565b9050602081019050919050565b828183375f83830152505050565b5f61040c610407846103bc565b6103a2565b90508281526020810184848401111561042857610427610330565b5b6104338482856103ec565b509392505050565b5f82601f83011261044f5761044e61032c565b5b813561045f8482602086016103fa565b91505092915050565b5f806040838503121561047e5761047d610324565b5b5f83013567ffffffffffffffff81111561049b5761049a610328565b5b6104a78582860161043b565b925050602083013567ffffffffffffffff8111156104c8576104c7610328565b5b6104d48582860161043b565b9150509250929050565b5f819050919050565b6104f0816104de565b82525050565b5f6020820190506105095f8301846104e7565b92915050565b610518816104de565b8114610522575f80fd5b50565b5f813590506105338161050f565b92915050565b5f6020828403121561054e5761054d610324565b5b5f61055b84828501610525565b91505092915050565b5f81519050919050565b5f82825260208201905092915050565b5f5b8381101561059b578082015181840152602081019050610580565b5f8484015250505050565b5f6105b082610564565b6105ba818561056e565b93506105ca81856020860161057e565b6105d381610334565b840191505092915050565b6105e7816104de565b82525050565b5f608083015f8301518482035f86015261060782826105a6565b915050602083015161061c60208601826105de565b50604083015161062f60408601826105de565b506060830151848203606086015261064782826105a6565b9150508091505092915050565b5f6020820190508181035f83015261066c81846105ed565b905092915050565b7f4e487b71000000000000000000000000000000000000000000000000000000005f52602260045260245ffd5b5f60028204905060018216806106b857607f821691505b6020821081036106cb576106ca610674565b5b50919050565b5f819050815f5260205f209050919050565b5f6020601f8301049050919050565b5f82821b905092915050565b5f6008830261072d7fffffffffffffffffffffffffffffffffffffffffffffffffffffffffffffffff826106f2565b61073786836106f2565b95508019841693508086168417925050509392505050565b5f819050919050565b5f61077261076d610768846104de565b61074f565b6104de565b9050919050565b5f819050919050565b61078b83610758565b61079f61079782610779565b8484546106fe565b825550505050565b5f90565b6107b36107a7565b6107be818484610782565b505050565b5b818110156107e1576107d65f826107ab565b6001810190506107c4565b5050565b601f821115610826576107f7816106d1565b610800846106e3565b8101602085101561080f578190505b61082361081b856106e3565b8301826107c3565b50505b505050565b5f82821c905092915050565b5f6108465f198460080261082b565b1980831691505092915050565b5f61085e8383610837565b9150826002028217905092915050565b61087782610564565b67ffffffffffffffff8111156108905761088f610344565b5b61089a82546106a1565b6108a58282856107e5565b5f60209050601f8311600181146108d6575f84156108c4578287015190505b6108ce8582610853565b865550610935565b601f1984166108e4866106d1565b5f5b8281101561090b578489015182556001820191506020850194506020810190506108e6565b868310156109285784890151610924601f891682610837565b8355505b6001600288020188555050505b505050505050565b5f82825260208201905092915050565b5f61095782610564565b610961818561093d565b935061097181856020860161057e565b61097a81610334565b840191505092915050565b5f6080820190508181035f83015261099d818761094d565b90506109ac60208301866104e7565b6109b960408301856104e7565b81810360608301526109cb818461094d565b905095945050505050565b7f4e487b71000000000000000000000000000000000000000000000000000000005f52601160045260245ffd5b5f610a0d826104de565b91507fffffffffffffffffffffffffffffffffffffffffffffffffffffffffffffffff8203610a3f57610a3e6109d6565b5b60018201905091905056fea2646970667358221220d90250a8da83eea3f8c185d07e88823bd9c588463aae5ca9f58beb5e3edd61c964736f6c63430008150033",
  "immutableReferences": {},
  "source": "//SPDX-License-Identifier: MIT\npragma solidity ^0.8.0;\npragma abicoder v2;\n\ncontract FIR_Records {\n    uint recordId;\n    mapping(uint => Record) private records;\n    struct Record {\n        string complainId;\n        uint _recordId;\n        uint timestamp;\n        string complain;\n    }\n    event recordAdded(\n        string _complainId,\n        uint _recordId,\n        uint _timestamp,\n        string _complain\n    );\n\n    function createComplain(\n        string memory _complainId,\n        string memory _complain\n    ) public {\n        records[recordId] = Record(\n            _complainId,\n            recordId,\n            block.timestamp,\n            _complain\n        );\n        emit recordAdded(\n            _complainId,\n            recordId,\n            records[recordId].timestamp,\n            _complain\n        );\n        recordId++;\n    }\n\n    function fetchComplain(uint _recordId) public view returns (Record memory) {\n        return records[_recordId];\n    }\n\n    function recordCount() public view returns (uint) {\n        return recordId;\n    }\n}\n",
  "sourcePath": "C:\\Users\\dixit\\Coding\\web3Conf final project\\contracts\\FIR_Records.sol",
  "compiler": {
    "name": "solc",
    "version": "0.8.21+commit.d9974bed.Emscripten.clang"
  },
  "schemaVersion": "3.4.16",
  "updatedAt": "2024-07-27T05:27:40.119Z",
  "networkType": "ethereum",
  "devdoc": {
    "kind": "dev",
    "methods": {},
    "version": 1
  },
  "userdoc": {
    "kind": "user",
    "methods": {},
    "version": 1
  }
}