{
  "contractName": "FIR_Records",
  "abi": [
    {
      "anonymous": false,
      "inputs": [
        {
          "indexed": false,
          "internalType": "uint256",
          "name": "recordId",
          "type": "uint256"
        },
        {
          "indexed": false,
          "internalType": "uint256",
          "name": "timestamp",
          "type": "uint256"
        },
        {
          "indexed": false,
          "internalType": "string",
          "name": "_complain",
          "type": "string"
        }
      ],
      "name": "recordAdded",
      "type": "event"
    },
    {
      "inputs": [],
      "name": "recordId",
      "outputs": [
        {
          "internalType": "uint256",
          "name": "",
          "type": "uint256"
        }
      ],
      "stateMutability": "view",
      "type": "function",
      "constant": true
    },
    {
      "inputs": [
        {
          "internalType": "string",
          "name": "_complain",
          "type": "string"
        }
      ],
      "name": "addRecord",
      "outputs": [],
      "stateMutability": "nonpayable",
      "type": "function"
    },
    {
      "inputs": [],
      "name": "getRecord",
      "outputs": [
        {
          "internalType": "uint256",
          "name": "",
          "type": "uint256"
        }
      ],
      "stateMutability": "view",
      "type": "function",
      "constant": true
    },
    {
      "inputs": [
        {
          "internalType": "uint256",
          "name": "_recordId",
          "type": "uint256"
        }
      ],
      "name": "getComplain",
      "outputs": [
        {
          "internalType": "string",
          "name": "",
          "type": "string"
        }
      ],
      "stateMutability": "view",
      "type": "function",
      "constant": true
    }
  ],
  "bytecode": "0x608060405234801561000f575f80fd5b506108ad8061001d5f395ff3fe608060405234801561000f575f80fd5b506004361061004a575f3560e01c8063d81aa8c41461004e578063f18ad6fb1461006a578063f7dfe22b14610088578063fbcd339b146100a6575b5f80fd5b61006860048036038101906100639190610397565b6100d6565b005b610072610199565b60405161007f91906103f6565b60405180910390f35b6100906101a1565b60405161009d91906103f6565b60405180910390f35b6100c060048036038101906100bb9190610439565b6101a6565b6040516100cd91906104de565b60405180910390f35b5f808154809291906100e79061052b565b919050555060405180606001604052805f5481526020014281526020018281525060015f805481526020019081526020015f205f820151815f0155602082015181600101556040820151816002019081610141919061076c565b509050507fa04ee287c9ef68ff83830adf0c1cf33385b1e285996683ba37f07ceaaa0d53065f5460015f805481526020019081526020015f20600101548360405161018e9392919061083b565b60405180910390a150565b5f8054905090565b5f5481565b606060015f8381526020019081526020015f2060020180546101c79061059f565b80601f01602080910402602001604051908101604052809291908181526020018280546101f39061059f565b801561023e5780601f106102155761010080835404028352916020019161023e565b820191905f5260205f20905b81548152906001019060200180831161022157829003601f168201915b50505050509050919050565b5f604051905090565b5f80fd5b5f80fd5b5f80fd5b5f80fd5b5f601f19601f8301169050919050565b7f4e487b71000000000000000000000000000000000000000000000000000000005f52604160045260245ffd5b6102a982610263565b810181811067ffffffffffffffff821117156102c8576102c7610273565b5b80604052505050565b5f6102da61024a565b90506102e682826102a0565b919050565b5f67ffffffffffffffff82111561030557610304610273565b5b61030e82610263565b9050602081019050919050565b828183375f83830152505050565b5f61033b610336846102eb565b6102d1565b9050828152602081018484840111156103575761035661025f565b5b61036284828561031b565b509392505050565b5f82601f83011261037e5761037d61025b565b5b813561038e848260208601610329565b91505092915050565b5f602082840312156103ac576103ab610253565b5b5f82013567ffffffffffffffff8111156103c9576103c8610257565b5b6103d58482850161036a565b91505092915050565b5f819050919050565b6103f0816103de565b82525050565b5f6020820190506104095f8301846103e7565b92915050565b610418816103de565b8114610422575f80fd5b50565b5f813590506104338161040f565b92915050565b5f6020828403121561044e5761044d610253565b5b5f61045b84828501610425565b91505092915050565b5f81519050919050565b5f82825260208201905092915050565b5f5b8381101561049b578082015181840152602081019050610480565b5f8484015250505050565b5f6104b082610464565b6104ba818561046e565b93506104ca81856020860161047e565b6104d381610263565b840191505092915050565b5f6020820190508181035f8301526104f681846104a6565b905092915050565b7f4e487b71000000000000000000000000000000000000000000000000000000005f52601160045260245ffd5b5f610535826103de565b91507fffffffffffffffffffffffffffffffffffffffffffffffffffffffffffffffff8203610567576105666104fe565b5b600182019050919050565b7f4e487b71000000000000000000000000000000000000000000000000000000005f52602260045260245ffd5b5f60028204905060018216806105b657607f821691505b6020821081036105c9576105c8610572565b5b50919050565b5f819050815f5260205f209050919050565b5f6020601f8301049050919050565b5f82821b905092915050565b5f6008830261062b7fffffffffffffffffffffffffffffffffffffffffffffffffffffffffffffffff826105f0565b61063586836105f0565b95508019841693508086168417925050509392505050565b5f819050919050565b5f61067061066b610666846103de565b61064d565b6103de565b9050919050565b5f819050919050565b61068983610656565b61069d61069582610677565b8484546105fc565b825550505050565b5f90565b6106b16106a5565b6106bc818484610680565b505050565b5b818110156106df576106d45f826106a9565b6001810190506106c2565b5050565b601f821115610724576106f5816105cf565b6106fe846105e1565b8101602085101561070d578190505b610721610719856105e1565b8301826106c1565b50505b505050565b5f82821c905092915050565b5f6107445f1984600802610729565b1980831691505092915050565b5f61075c8383610735565b9150826002028217905092915050565b61077582610464565b67ffffffffffffffff81111561078e5761078d610273565b5b610798825461059f565b6107a38282856106e3565b5f60209050601f8311600181146107d4575f84156107c2578287015190505b6107cc8582610751565b865550610833565b601f1984166107e2866105cf565b5f5b82811015610809578489015182556001820191506020850194506020810190506107e4565b868310156108265784890151610822601f891682610735565b8355505b6001600288020188555050505b505050505050565b5f60608201905061084e5f8301866103e7565b61085b60208301856103e7565b818103604083015261086d81846104a6565b905094935050505056fea26469706673582212208e5b7c8d4d329b63b5fd5165d3bee88beb8f685912ba61e3cbb1dfcfe430623264736f6c63430008150033",
  "immutableReferences": {},
  "source": "// SPDX-License-Identifier: MIT\npragma solidity >=0.4.22 <0.9.0;\n\ncontract FIR_Records {\n    uint public recordId;\n    mapping(uint => Record) records;\n    struct Record {\n        uint recordId;\n        uint timestamp;\n        string complain;\n    }\n    event recordAdded(uint recordId, uint timestamp, string _complain);\n\n    function addRecord(string memory _complain) public {\n        recordId++;\n        records[recordId] = Record(recordId, block.timestamp, _complain);\n        emit recordAdded(recordId, records[recordId].timestamp, _complain);\n    }\n\n    function getRecord() public view returns (uint) {\n        return recordId;\n    }\n    function getComplain(uint _recordId) public view returns (string memory) {\n        return records[_recordId].complain;\n    }\n}\n",
  "sourcePath": "C:\\Users\\dixit\\Coding\\web3Conf final project\\contracts\\FIR_Records.sol",
  "compiler": {
    "name": "solc",
    "version": "0.8.21+commit.d9974bed.Emscripten.clang"
  },
  "schemaVersion": "3.4.16",
  "updatedAt": "2024-07-24T05:08:37.463Z",
  "networkType": "ethereum",
  "devdoc": {
    "kind": "dev",
    "methods": {},
    "version": 1
  },
  "userdoc": {
    "kind": "user",
    "methods": {},
    "version": 1
  }
}